:100000000C940C030C943D030C943D030C943D03A1
:100010000C943D030C943D030C943D030C943D0360
:100020000C943D030C943D030C943D030C943D0350
:100030000C943D030C943D030C943D030C943D0340
:100040000C943D030C943D030C943D030C943D0330
:100050000C943D030C943D030C943D030C94174108
:100060000C943D030C94E1400C94B7400C943D0378
:100070000C943D030C943D030C943D030C943D0300
:100080000C943D030C943D030C943D030C943D03F0
:100090000C943D030C943D030C943D030C9461417E
:1000A0000C943D030C943D030C943D030C943D03D0
:1000B0000C943D030C943D030C943D030C943D03C0
:1000C0000C943D030C943D030C943D030C943D03B0
:1000D0000C943D030C943D030C943D030C943D03A0
:1000E0000C943D030C94701A0C9422250C94931AD2
:1000F0000C94441A0C946D1A0C9454350C941420DE
:100100000C94791A0C9406040C9442030C949F35B9
:100110000C948D1A0C9466080C949D030C94CC04DA
:100120000C94601D0C94EF040C94170B0C94F904C0
:100130000C94A6350C94022A0C94D31F0C94CE0375
:100140000C94D4040C9403090C94E1040C9407055A
:100150000C94CC080C94D7040C947F1A0C94EB04E8
:100160000C9403050C94731A0C94052A0C94F3094F
:100170000C944B4B0C94E1200C9481420C94C204DF
:100180000C9470030C94771A0C9400090C946C1A5C
:100190000C943F030C94E7040C94F5040C94A724EE
:1001A0000C940B0B0C944A060C94AC030C94052194
:1001B0000C94C0030C94DD040C9402050C949D086F
:1001C0000C94C8040C94AB400C949F400C941B08F6
:1001D0000C94D9190C94CB080C94A4080C94741AA0
:1001E0000C94D0040C94901A0C94FD040C945304B9
:1001F0000C94CA1B543A2530326420533A253032CD
:100200006420453A2530346400253130732025645C
:100210002525002531307320453A253033640020F0
:100220002020202020444F4E452020202020002048
:1002300020202043414E43454C4544202020004F80
:100240004B2072656164696E6720736563746F72B9
:100250002061667465722025642072657472696518
:10026000730A004641494C555245207265616469E4
:100270006E6720736563746F7220616674657220A7
:10028000256420726574726965730A0054413A25C9
:100290003032642053413A253032642045533A25A8
:1002A00030346F202D200000002200250028002B74
:1002B000002E003100340002010000050108010B8E
:1002C00001000020002300260029002C002F00320E
:1002D000000001000003010601090100000A0B02F1
:1002E000090C0D0E080703040100000000000000C7
:1002F00000000000000000000000000000000000FE
:1003000000000000000000121110000000000000BA
:1003100000000000000000000000000000000000DD
:100320000000002100240027002A002D00300033A7
:100330000001010000040107010A01010210202050
:100340000808102040102040800201020108040229
:10035000010102040810204080804020100804029F
:1003600001800402018040201008040201080402F8
:1003700001010204081020408001020408102040FE
:100380008005050505070508080808020202020A9B
:100390000A08080404040401010101010101010328
:1003A00003030303030303040707070C0C0C0C0CE3
:1003B0000C0C0C0202020206060606060606060BD6
:1003C0000B0B0B0B0B0B0B436865636B205344202B
:1003D000666F726D61742E002C3058005364457244
:1003E000726F723A203058004E6F20636172642C35
:1003F0002077726F6E6720636869702073656C6523
:1004000063742070696E2C206F7220776972696E38
:1004100067206572726F723F00446F206E6F7420A8
:100420007265666F726D6174207468652053442E26
:1004300000626567696E2829206661696C656400E1
:100440004552524F52210053442043415244004EE2
:100450006F2076616C6964204D6963726F5344202C
:10046000636172642064657465637465642E0A0058
:10047000496E697469616C697A6174696F6E206331
:100480006F6D706C6574652E0A0056616C6964202E
:100490004D6963726F5344206361726420646574B4
:1004A00065637465642E0A000A474D443730313263
:1004B00020526561646572202573202849444520D7
:1004C00025752E25752E25752F67636320257329C5
:1004D000202D202573202D2025730A003F556E6B9B
:1004E0006E6F776E20636F6D6D616E643F0A000AF8
:1004F0004E6F74653A20636861727320696E2028BC
:100500002920617265206F7074696F6E616C2E2096
:100510004361736520646F6573206E6F74206D6135
:10052000747465722E0A0020206828656C7029207A
:10053000202020202020202D2D20646973706C61E4
:1005400079207468697320746578740A00202031FA
:10055000202020202020202020202020202D2D2081
:1005600064756D70206472697665205B315D2074FE
:100570006F2066696C652044554D5058582E445381
:100580004B20285858202D205B303B2039395D29DD
:100590000A00202030202020202020202020202081
:1005A00020202D2D2064756D702064726976652081
:1005B0005B305D20746F2066696C652044554D503A
:1005C00058582E44534B20285858202D205B303B40
:1005D0002039395D290A000A436F6D6D616E6473BD
:1005E00020617661696C61626C653A0A0A00447543
:1005F0006D70206472697665205B315D0A00447518
:100600006D70206472697665205B305D0A000A00B7
:100610005E550A0081424B4B11241FBECFEFD1E241
:10062000DEBFCDBF00E00CBF14E0A0E0B2E0E0E62A
:10063000F4EA00E00BBF02C007900D92A231B107AF
:10064000D9F729E0A2E1B4E001C01D92A533B207B9
:10065000E1F713E0CBE0D3E000E006C02197010909
:10066000802FFE010E945451CA30D10780E0080754
:10067000A9F70E94BD430C941E520C94000090E018
:1006800080E0089590E080E00895DC01ED91FC9118
:100690000190F081E02D1994EF92FF920F931F9338
:1006A000CF93DF938C017B01D0E0C0E0F701EC0F2A
:1006B000FD1F6491662361F0D801ED91FC910190DA
:1006C000F081E02DC8011995892B11F02196EECF0C
:1006D000CE01DF91CF911F910F91FF90EF90089580
:1006E000AF92BF92CF92DF92EF92FF920F931F9340
:1006F000CF93DF936C017B018B01040F151FEB017E
:100700005E01AE18BF08C017D10759F06991D60134
:10071000ED91FC910190F081E02DC6011995892B96
:1007200079F7C501DF91CF911F910F91FF90EF9065
:10073000DF90CF90BF90AF900895FC01538D448D12
:10074000252F30E0842F90E0821B930B541710F07C
:10075000CF96089501970895FC01918D828D981789
:1007600061F0A28DAE0FBF2FB11D5D968C91928D61
:100770009F5F9F73928F90E008958FEF9FEF089592
:10078000FC01918D828D981731F0828DE80FF11D5B
:10079000858D90E008958FEF9FEF0895FC01918D76
:1007A000228D892F90E0805C9F4F821B91098F736F
:1007B0009927089580E595E00E94CE0321E0892BDA
:1007C00009F420E0822F0895FC01A48DA80FB92F11
:1007D000B11DA35ABF4F2C91848D90E001968F7369
:1007E0009927848FA689B7892C93A089B1898C9188
:1007F000837080648C93938D848D981306C00288D7
:10080000F389E02D80818F7D80830895EF92FF92A0
:100810000F931F93CF93DF93EC0181E0888F9B8D23
:100820008C8D98131AC0E889F989808185FF15C0DD
:100830009FB7F894EE89FF896083E889F989808100
:100840008370806480839FBF81E090E0DF91CF91CF
:100850001F910F91FF90EF900895F62E0B8D10E0F1
:100860000F5F1F4F0F731127E02E8C8D8E110CC060
:100870000FB607FCFACFE889F989808185FFF5CFAB
:10088000CE010E94E403F1CFEB8DEC0FFD2FF11DA3
:10089000E35AFF4FF0829FB7F8940B8FEA89FB89E8
:1008A00080818062CFCFCF93DF93EC01888D882346
:1008B000B9F0AA89BB89E889F9898C9185FD03C0C3
:1008C000808186FD0DC00FB607FCF7CF8C9185FFA8
:1008D000F2CF808185FFEDCFCE010E94E403E9CF06
:1008E000DF91CF91089580E090E0892B29F00E945C
:1008F000DA0381110E94000080E090E0892B49F02A
:1009000080E090E0892B29F00E94000081110E9474
:10091000000080E090E0892B49F080E090E0892B96
:1009200029F00E94000081110E94000080E090E008
:10093000892B49F080E090E0892B29F00E9400008B
:1009400081110C94000008958150823108F05AC042
:10095000E82FF0E08827E055FB4F8F4F0C9454515F
:10096000D004D404C204C804CC040205D704DD04B6
:10097000E104E704EB04EF04F504F9040205FD04C7
:1009800003050705809180008F778093800008958C
:10099000809180008F7DF9CF80918000877FF5CF97
:1009A00084B58F7784BD089584B58F7DFBCF80910A
:1009B000B0008F778093B00008958091B0008F7D54
:1009C000F9CF809190008F77809390000895809167
:1009D00090008F7DF9CF80919000877FF5CF809137
:1009E000A0008F778093A00008958091A0008F7D54
:1009F000F9CF8091A000877FF5CF809120018F777C
:100A0000809320010895809120018F7DF9CF8091FE
:100A10002001877FF5CFCF93DF93282F30E0F901B6
:100A2000E552FD4F8491F901E55CFC4FD491F90149
:100A3000EF57FC4FC491CC23A1F081110E94A40474
:100A4000EC2FF0E0EE0FFF1FEF53FD4FA591B49197
:100A5000EC91ED2381E090E009F480E0DF91CF910B
:100A6000089580E090E0FACF1F93CF93DF93282F73
:100A700030E0F901E552FD4F8491F901E55CFC4F4E
:100A8000D491F901EF57FC4FC491CC23A9F0162F54
:100A900081110E94A404EC2FF0E0EE0FFF1FE95536
:100AA000FD4FA591B4918FB7F894EC91111108C046
:100AB000D095DE23DC938FBFDF91CF911F910895F6
:100AC000DE2BF8CFCF93DF9390E0FC01E55CFC4F89
:100AD00024918F579C4FFC0184918823C9F090E0AA
:100AE000880F991FFC01EF5DFC4FA591B491FC01AB
:100AF000E955FD4FC591D49161110DC09FB7F89490
:100B00008C91209582238C938881282328839FBFF2
:100B1000DF91CF910895623051F49FB7F8943C91E2
:100B2000822F809583238C93E8812E2BEFCF8FB774
:100B3000F894EC912E2B2C938FBFEACF3FB7F8940B
:100B40008091880490918904A0918A04B0918B04CB
:100B500026B5A89B05C02F3F19F00196A11DB11D18
:100B60003FBFBA2FA92F982F8827BC01CD01620F54
:100B7000711D811D911D42E0660F771F881F991F0F
:100B80004A95D1F708958F929F92AF92BF92CF92DC
:100B9000DF92EF92FF924B015C010E949E056B0178
:100BA0007C010E949E056C197D098E099F09683E93
:100BB000734081059105A8F321E0821A9108A108EC
:100BC000B10888EEC80E83E0D81EE11CF11C811428
:100BD0009104A104B10429F7FF90EF90DF90CF902A
:100BE000BF90AF909F908F9008952FB7F894609129
:100BF00084047091850480918604909187042FBFAE
:100C00000895DC01ED91FC910088F189E02D1994A3
:100C1000DC01ED91FC910190F081E02D1994FF929F
:100C20000F931F93CF93DF938C01EB01F42E642F6E
:100C3000DC0111968D919C910E940106DC011296B7
:100C4000ED91FC911397268137812C233D23232B93
:100C500071F0ED91FC910284F385E02D2F2DA80118
:100C6000BE01DF91CF911F910F91FF90199490E0F9
:100C700080E0DF91CF911F910F91FF90089524E0C4
:100C80006202B0011124DC01ED91FC91E60FF71F27
:100C9000838108956F927F928F929F92AF92CF92AD
:100CA000DF92EF92FF920F931F93CF93DF93EC01AC
:100CB000F62EEE81FF81662E660F7708C301880F3E
:100CC000991F880F991F0190F081E02DE80FF91FFF
:100CD0006081418182819381042E000C550B062E88
:100CE000000C770B8A01090F111D97FD1A95015011
:100CF00011099B01280F311D87FD3A9521503109BB
:100D0000E881F9811F920284F385E02D8824839481
:100D1000912CA12CD12CC12CB0E2EB2ECE01199537
:100D2000E881F9810288F389E02D2F2D40E060E011
:100D3000CE011995EE81FF81660C771C828193812B
:100D4000680E791EF301118210820F90DF91CF910E
:100D50001F910F91FF90EF90DF90CF90AF909F90F9
:100D60008F907F906F9008952F923F924F925F9255
:100D70006F927F928F929F92AF92BF92CF92EF929B
:100D8000FF920F931F93CF93DF93EC012B015A0136
:100D9000122FE881F9810488F589E02D00E021E037
:100DA00030E040E061E070E0199584E01802100145
:100DB0001124D5011296ED91FC91828184FF5EC0D1
:100DC000912C812CD501ED91FC910190F081E02DC9
:100DD000C5011995082E000C990B881699060CF080
:100DE000D8C0D501ED91FC910088F189E02D682DE6
:100DF000C50119953C01FC0124813581E881F98107
:100E00000488F589E02D00E040E061E070E0CE016B
:100E10001995D30114962D913C91E881F9810688AA
:100E2000F789E02DE12E40E0682DCE011995F30100
:100E300024813581E881F9810488F589E02D40E03D
:100E400061E070E0CE011995D301ED91FC91048031
:100E5000F581E02DAE81BF810D90BC91A02DA20D3A
:100E6000B31D1296EC90C12E082D9E0140E0B201F8
:100E7000C3011995BFEF8B1A9B0AA4CFE881F981B2
:100E80000088F189E02D612FCE011995E881F98163
:100E90000288F389E02D212F40E060E0CE01199512
:100EA000712C612F8E819F810E943F0678160CF075
:100EB00070C0D501ED91FC910190F081E02DC5014C
:100EC000199578160CF065C0D501ED91FC9100885C
:100ED000F189E02D672DC50119954C01FC01E480D5
:100EE000F580E881F9810484F585E02DC12C00E0CE
:100EF00030E020E0412F672DCE011995E881F9817E
:100F00000288F389E02D212F472D60E0CE0119954D
:100F1000D40114962D913C91E881F9810488F589DA
:100F2000E02D40E061E070E0CE011995F4012481EC
:100F30003581E881F9810688F789E02DE12E40E0CE
:100F4000672DCE011995D40114962D913C91E8811D
:100F5000F9810488F589E02D40E061E070E0CE0180
:100F60001995D401ED91FC910480F581E02DAE81BD
:100F7000BF810D90BC91A02DA20DB31D1296EC90D7
:100F8000C12E072D9E0140E0B201C4011995739452
:100F900088CFDF91CF911F910F91FF90EF90CF906D
:100FA000BF90AF909F908F907F906F905F904F9089
:100FB0003F902F9008950F931F93CF93DF938C0151
:100FC000D0E0C0E0D8018D919C911197C817D90746
:100FD0009CF4CE01880F991F1296ED91FC91E80FB9
:100FE000F91F80819181DC01ED91FC910684F785E8
:100FF000E02D19952196E6CFDF91CF911F910F91AA
:101000000895DC016D917C9130E020E026173707D0
:101010008CF4A901440F551FDC011296ED91FC914F
:10102000E40FF51F0190F081E02D138612862F5FEB
:101030003F4FECCF08955F926F927F928F929F9275
:10104000AF92BF92CF92DF92EF92FF920F931F93D6
:10105000CF93DF93CDB7DEB76C01F62E572E4A0142
:101060003901081519050CF1D601ED91FC910288A2
:10107000F389E02D20E0482D6F2DC6011995AF2C86
:10108000B52C6A147B046CF0D601ED91FC910190B3
:10109000F081E02D6E2DC6011995BFEFAB1ABB0A8A
:1010A000F0CF8FEF881A980ADCCFC601DF91CF917D
:1010B0001F910F91FF90EF90DF90CF90BF90AF9076
:1010C0009F908F907F906F905F900895EF92FF9226
:1010D0000F931F93CF93DF93EC01F62EE42EE8815C
:1010E000F9810288F389E02D242F462F60E01995BD
:1010F00010E000E0EE81FF810190F081E02D82811F
:10110000082E000C990B081719073CF460E2CE0179
:101110000E9445030F5F1F4FEDCFE881F9810288E0
:10112000F389E02D2E2D4F2D60E0CE01DF91CF9180
:101130001F910F91FF90EF901994CF93DF93CDB74C
:10114000DEB7DF91CF910895EF92FF920F931F9337
:10115000CF93DF93EC01142F7901E881F9810488A2
:10116000F589E02D64E070E01995E881F98101903E
:10117000F081E02D60E2112331F06091F605EF2857
:1011800011F06091F505CE01DF91CF911F910F9184
:10119000FF90EF9019940895BF92CF92DF92EF9253
:1011A000FF920F931F93CF93DF937C018B01B42E9B
:1011B000FB01C42E440FDD08EF012196608161110F
:1011C0000EC0C01BD10B8C2F8150DF91CF911F918E
:1011D0000F91FF90EF90DF90CF90BF900895BB20CC
:1011E00029F0E01BF10BEC15FD055CF7D701ED9143
:1011F000FC910190F081E02DC7011995FE01DCCF33
:1012000080E0089508957F928F929F92AF92BF924F
:10121000CF92DF92EF92FF920F931F93CF93DF93C2
:10122000EC015B017A01822E1E82EA81FB818281C0
:1012300093816C0124E1C222DD24C114D10429F17F
:1012400010E000E0E881F9810190F081E02DCE010D
:101250001995082E000C990B081719070CF0B5C04A
:10126000E881F9810088F189E02D602FCE01199580
:10127000DC01ED91FC910280F381E02D20E0A701DB
:10128000B50119950F5F1F4FDDCFDB011396ED916F
:10129000FC919780B92D25E0B2028001112482FFD4
:1012A00013C084819581B80165507109680F791F59
:1012B000DB0111968D919C91DC01ED91FC910280F6
:1012C000F381E02D282D199560E0F7018681978143
:1012D0000E943F06EA81FB8120853185D501139666
:1012E000ED91FC9191E021FD0CC09085992309F4CA
:1012F0006AC03695279536952795B1E02B27922F12
:10130000917024813581020F131FD8011196ED9140
:10131000FC910280F381E02D42815381882009F401
:1013200054C0292D990C330B4471552761E070E0AE
:10133000452B11F470E060E0261B370BF701448168
:101340005581240F351FD9017C90882E891A082CCD
:10135000000C9908172D1C0DC814D904B4F5E881A8
:10136000F9810190F081E02DCE01199518176CF5E7
:10137000E881F9810088F189E02D612FCE0119956E
:10138000DC01ED91FC910280F381E02D20E0A701CA
:10139000B5011995E881F9810088F189E02D612F67
:1013A000CE011995DC01ED91FC910680F781E02DCD
:1013B00000E020E0A701B5011995811106C0BFEF3B
:1013C000CB1ADB0AC7CF90E09CCFDF91CF911F9162
:1013D0000F91FF90EF90DF90CF90BF90AF909F90D4
:1013E0008F907F9008953F924F925F926F927F927D
:1013F0008F929F92AF92BF92CF92DF92EF92FF9225
:101400000F931F93CF93DF9300D01F92CDB7DEB71A
:10141000DC0116963C903110FBC0102F7A016B0155
:101420009C838B83FC010280F381E02DFA83E983A6
:1014300082819381AC0144715527452B79F1B12C00
:10144000A12CAB81BC81ED91FC9111970190F081B1
:10145000E02DCD011995082E000C990BA816B906A0
:101460000CF04DC0AB81BC81ED91FC9111970088CF
:10147000F189E02D6A2DCD011995DC01ED91FC91EA
:101480000680F781E02D012F20E0A701B601199514
:101490008111BEC0BFEFAB1ABB0AD3CFFB014181A4
:1014A00052816B817C816417750749F5222339F1DC
:1014B00083809480D40117960C91179714964D90C1
:1014C0005C90B5E00B02300111245C01E4E0AE2237
:1014D000BB2482FF2BC0B30165507109640D751DDB
:1014E000DB0111968D919C91DC01ED91FC910680C0
:1014F000F781E02D012F21E0A7011995382E832DCA
:101500000F900F900F900F90DF91CF911F910F913F
:10151000FF90EF90DF90CF90BF90AF909F908F9013
:101520007F906F905F904F903F90089560E0F7013B
:10153000868197810E943F06A981BA8118962D91D4
:101540003C9121FD61C0F4019085992309F45EC0AE
:101550003695279536952795F1E02F272170882E0F
:10156000821A402F000F550B460C571CF201A18127
:10157000B28112960D90BC91A02D12968D919C91E6
:101580008471992721E030E0892B11F430E020E0CC
:10159000CA01821B930BD7011496ED91FC91E80FC1
:1015A000F91F7080082C000C9908072D0A0DA8144B
:1015B000B9040CF0A4CFAB81BC81ED91FC911197E3
:1015C0000190F081E02DCD01199508170CF097CF0F
:1015D000AB81BC81ED91FC9111970088F189E02DE0
:1015E000602FCD011995DC01ED91FC910680F7810A
:1015F000E02D012F20E0A701B6011995811108C047
:10160000BFEFAB1ABB0AD1CF21E0A9CF20E0A7CF13
:101610003324339474CFDC01CB01BA011296ED91DF
:10162000FC9113970190F081E02DAD011994FC011C
:1016300086810895DC0117962C9117971496ED91E9
:10164000FC91B5E02B02E00DF11D11248181928106
:101650000895CF93DF93EC010E941A0B2F81AC8188
:10166000BD8135E02302A00DB11D1124EC01E881FC
:10167000F9810088F189E02D6C91DF91CF91199467
:1016800020913904260F3327331F21323105ECF422
:1016900020915D04FC0190E080E0243069F082E05C
:1016A0000895A09139042191AC01475E5B4FA40FCE
:1016B000B52FB11D2C930196861798F380913904AC
:1016C000680F6093390480E0089581E008950895DB
:1016D0008FEF9FEF08958FEF9FEF08958091120491
:1016E00090E09195819591090895CF93DF93CB0177
:1016F000EA01642F0E94400BCE01DF91CF91089543
:10170000CF93DF931F92CDB7DEB7698361E0CE013F
:1017100001960E94400B81E090E00F90DF91CF9105
:1017200008958EBD00000DB407FEFDCF8EB508955F
:10173000FC01928183819CBD8DBD81E0878360E047
:1017400085810E9434058FEF0C94910B8FEF0C94E0
:10175000910BCF93DF93EC010E94F505C60FD71FC5
:101760000E94A60B8F3F59F00E94F505CE01861B03
:10177000970B97FFF5CF80E0DF91CF91089581E03F
:10178000FBCFCF93DF93FC012781222349F0EC01AB
:1017900061E085810E9434058FEF0E94910B1F82CA
:1017A000DF91CF9108951F93CF93DF93EC0188E5EC
:1017B00092E00E94A90B182F882361F08DEF0E9400
:1017C000910BCE010E94C10B1886812FDF91CF9122
:1017D0001F9108958FE18E83CE010E94C10BF5CF3A
:1017E0000F931F93CF93DF938C01862FEA010E9402
:1017F000910BFE0181918EBDDE5FEC17FD0741F07C
:101800008191000000000DB407FEFDCF8EBDF5CF25
:101810000DB407FEFDCF8FEF0E94910B8FEF0E945A
:10182000910B0E94A60BF80181878F71853059F0CA
:1018300081E28683C8010E94C10B80E0DF91CF91D5
:101840001F910F91089581E0F9CFCF92DF92EF922F
:10185000FF920F931F93CF93DF93EC018B017A01DB
:101860000E94F5056B0124EDC21A2EEFD20A0E94E8
:10187000A60B89878F3FB1F40E94F505C601861B30
:10188000970B97FFF4CF8EE18E83CE010E94C10BA0
:1018900080E0DF91CF911F910F91FF90EF90DF904B
:1018A000CF9008958E3F11F089E1EECF8FEF8EBD7E
:1018B000F801C7013FEF019749F0000000000DB4A7
:1018C00007FEFDCF2EB53EBD2193F5CF81E0E81A8E
:1018D000F1080E0D1F1D0DB407FEFDCF8EB5F801EA
:1018E000808319860E94A60B0E94A60B81E0D1CFAF
:1018F000DF92EF92FF920F931F93CF93DF93EC0150
:10190000162F022FF32EE42ED52E0E94A80F882327
:10191000D1F18F81811103C0CE010E94980B11116A
:101920002AC0812F80640E94910B8D2D0E94910B03
:101930008E2D0E94910B8F2D0E94910B802F0E9463
:10194000910B87E8111101C085E90E94910B0E945B
:10195000A60B0AE010E00E94A60B898787FF03C050
:1019600001501109C1F7DF91CF911F910F91FF90A5
:10197000EF90DF9008951C30A1F28CE291E00E947C
:10198000A90B8111CECF8FEFEECF8F929F92AF92A6
:10199000BF92CF92DF92EF92FF920F931F93CF935C
:1019A000DF93EC014A015B0169018885823049F4CB
:1019B0008B859C85AD85BE8588159905AA05BB05D7
:1019C00059F18A85A5019401833039F089E0220F0D
:1019D000331F441F551F8A95D1F769E1CE010E943C
:1019E000780C882399F08EE08E83CE010E94C10B83
:1019F00080E0DF91CF911F910F91FF90EF90DF90EA
:101A0000CF90BF90AF909F908F90089582E088878D
:101A10008B869C86AD86BE86F12CE12CE016F10605
:101A2000A9F088E592E00E94A90B811102C085E22D
:101A3000DBCFA6016CEFCE010E94F00B8823A9F248
:101A40008FEFE81AF80A8EEFD81AE8CF8B859C85BD
:101A5000AD85BE858E0D9F1DA11DB11D8B879C87F9
:101A6000AD87BE878F858111C4CFCE01DF91CF9125
:101A70001F910F91FF90EF90DF90CF90BF90AF90AC
:101A80009F908F900C94D30BEF92FF920F931F9324
:101A9000CF93DF93EC0179011F85112369F001E0F9
:101AA00010E00E94C50C182F812FDF91CF911F915C
:101AB0000F91FF90EF9008958A85833039F089E087
:101AC000440F551F661F771F8A95D1F79A01AB0106
:101AD00068E1CE010E94780C882331F08DE08E837E
:101AE000CE010E94C10BE0CFA7016EEFCE010E9494
:101AF000F00B8823A9F388E592E00E94A90B082F38
:101B000084E2002361F320E030E0A9016DE0CE0122
:101B10000E94780C882311F08AE0E1CF0E94A60B86
:101B20008111FACFCE010E94C10B102FBDCFEF92D1
:101B3000FF921F93CF93DF93FC01208111E020FFE0
:101B400012C0EC017C01FBE0EF0EF11C4F815885C7
:101B500069857A85970189819A810E94440D182FA1
:101B6000811108C010E0812FDF91CF911F91FF906C
:101B7000EF900895888181FD04C088818E7F8883DD
:101B8000F2CF4F81588569857A858B819C81AD81A3
:101B9000BE81480F591F6A1F7B1F970189819A8157
:101BA0000E94440D8111E9CFDDCFCF93DF93EC018B
:101BB000188620E030E0A9016CE00E94780C8823B0
:101BC00049F089E08E83CE010E94C10B80E0DF9155
:101BD000CF910895CE010E94C10B81E0F8CF8F9282
:101BE0009F92AF92BF92CF92DF92EF92FF920F93AC
:101BF0001F93CF93DF93EC014A015B016901888554
:101C0000813049F48B859C85AD85BE858815990505
:101C1000AA05BB0559F18A85A5019401833039F0E5
:101C200089E0220F331F441F551F8A95D1F762E1C7
:101C3000CE010E94780C882399F08CE08E83CE012F
:101C40000E94C10B80E0DF91CF911F910F91FF9017
:101C5000EF90DF90CF90BF90AF909F908F900895BE
:101C600081E088878B869C86AD86BE86F12CE12C30
:101C7000E016F10671F040E052E0B601CE010E949C
:101C8000250C882301F38FEFE81AF80A8EEFD81A93
:101C9000EFCF8B859C85AD85BE858E0D9F1DA11DCB
:101CA000B11D8B879C87AD87BE878F858111CBCF78
:101CB000CE01DF91CF911F910F91FF90EF90DF90B8
:101CC000CF90BF90AF909F908F900C94D50D8F9236
:101CD0009F92AF92BF92FF920F931F93CF93DF9388
:101CE000DC011196ED91FC91EF2B61F490E080E026
:101CF000DF91CF911F910F91FF90BF90AF909F9078
:101D00008F900895F22E4A015B01EC018F81988536
:101D1000A985BA8588159905AA05BB0561F0CE018C
:101D20000E94970D882311F3F2FE0DC018828F8256
:101D30009886A986BA862F2D2370F880F22AF88219
:101D4000CE010B96D5CF01E010E09E01255F3F4FFD
:101D5000B501A40189819A810E94EF0D8111E6CF1E
:101D6000C5CF2F923F924F925F926F927F928F9248
:101D70009F92AF92BF92CF92DF92EF92FF921F930A
:101D8000CF93DF9300D000D000D01F92CDB7DEB745
:101D90009A87898749835A836B837C836A017B0195
:101DA00022E0C21AD108E108F108452B462B472B47
:101DB00041F4E985FA85E55FFD4FC080D180E2807E
:101DC000F38089859A85855E9D4F98878F83FC0176
:101DD00080819181A281B381C816D906EA06FB06EB
:101DE00018F0C12CD12C7601D701C60143E0B6957D
:101DF000A795979587954A95D1F71C01F1E03F2269
:101E000011E0C6018770992701C0110F8A95EAF782
:101E1000260137014601570129853A85295E3D4F44
:101E20003E832D83ED81FE8180819181A281B381EA
:101E3000B501A4013CE076956795579547953A958D
:101E4000D1F7480F591F6A1F7B1F20E089859A85AB
:101E50000E94670E009709F472C0FC01E20DF31DA9
:101E60002081FFEF8F1A9F0AAF0ABF0A322F31235A
:101E7000D1F5B501A4014419550966097709413026
:101E800051056105710589F589819A81AB81BC8114
:101E9000892B8A2B8B2B49F4A985BA85A55FBD4F69
:101EA000FD014082518262827382C301B2016E5F82
:101EB0007F4F8F4F9F4F2A960FB6F894DEBF0FBE0D
:101EC000CDBFDF91CF911F91FF90EF90DF90CF902A
:101ED000BF90AF909F908F907F906F905F904F904A
:101EE0003F902F90089524013501C814D904EA04C5
:101EF000FB0449F1AF81B8854D915D916D917C9165
:101F000084169506A606B70680F4110F09F0A9CF2E
:101F100091012F5F3F4F312C212C11E02115B2E0B0
:101F20003B0708F07FCF190198CF212C22E0322EF9
:101F3000412C512C3201812C912C5401E9CF60E0CD
:101F400070E0CB01B8CF61E070E080E090E0B3CF0B
:101F5000FC012085223011F40C94D30B213011F4B4
:101F60000C94D50D81E008958F929F92AF92BF920D
:101F7000CF92DF92EF92FF920F931F934230510561
:101F80006105710560F480E01F910F91FF90EF9063
:101F9000DF90CF90BF90AF909F908F900895FC01FD
:101FA000C08CD18CE28CF38CC416D506E606F706FD
:101FB00050F3480159016A018581803229F58489ED
:101FC0009589A689B78917E07695679557954795BE
:101FD0001A95D1F7480F591F6A1F7B1F23E0CF01C5
:101FE00080960E94670E009771F2CC0CDD1CCC0C21
:101FF000DD1CF1E0DF228C0D9D1DFC0180829182B1
:10200000A282B38281E0C0CF803109F0BCCF448985
:102010005589668977894D0D511D611D711D23E01C
:10202000CF0180960E94670E009709F4ACCFCC0CCC
:10203000DD1CF1E0DF22C80ED91EF60111830083FA
:10204000E1CFCF92DF92EF92FF920F931F93CF9346
:10205000DF93423051056105710550F48FEFDF9138
:10206000CF911F910F91FF90EF90DF90CF90089547
:10207000FC01C08CD18CE28CF38CC416D506E6062C
:10208000F70660F389016A01EC018581803299F5D8
:1020900084899589A689B789E7E0769567955795EC
:1020A0004795EA95D1F7480F591F6A1F7B1F22E019
:1020B000CE0180960E94670E009781F2CC0CDD1C49
:1020C000CC0CDD1CF1E0DF228C0D9D1DFC0180811C
:1020D0009181A281B381488D598D6A8D7B8D48177E
:1020E00059076A077B0730F1F80180839183A28347
:1020F000B38381E0B4CF803109F0B0CF44895589F2
:10210000668977894D0D511D611D711D22E0CF013A
:1021100080960E94670E009709F4A0CFCC0CDD1CBE
:10212000F1E0DF22C80ED91EF60180819181B0E076
:10213000A0E0D1CF80E093CF9F92AF92BF92CF9299
:10214000DF92EF92FF920F931F93CF93DF9300D014
:102150001F92CDB7DEB75C016A017B019E012F5F44
:102160003F4FB701A601C5010E942110982E87FD9F
:1021700034C000E010E09801B701A601C5010E943B
:10218000B40F882351F1F50140855185628573852F
:10219000C416D506E606F70650F4F1E0CF1AD108CA
:1021A000E108F108F501C086D186E286F386C98090
:1021B000DA80EB80FC809110D1CF0F900F900F90C0
:1021C0000F90DF91CF911F910F91FF90EF90DF90D3
:1021D000CF90BF90AF909F90089580E0EECF0F9387
:1021E0001F93CF93DF93EC018A8187FF3EC04C8918
:1021F0005D896E897F898E819F8121E080960E9412
:10220000670E009749F489818160898380E0DF91BE
:10221000CF911F910F910895EC81FD81EF70FF2701
:1022200025E0EE0FFF1F2A95E1F7E80FF91F309721
:1022300051F38081853E39F3888187738387888154
:1022400083FF08C0888D998DAA8DBB8D848F958F53
:10225000A68FB78F8C8D9D8DAE8DBF8D938F828F06
:10226000B58BA48B8A818F778A830E811F81C801E9
:1022700080960E94970D882331F2F8018081918128
:102280000E94A80F882309F4BECFC1CF4F925F925E
:102290006F927F928F929F92AF92BF92CF92DF9276
:1022A000EF92FF920F931F93CF93DF93EC014A01BC
:1022B0005B014C845D846E847F842881222309F431
:1022C0005CC0488959896A897B89481559056A051E
:1022D0007B0581F081149104A104B10469F41C868A
:1022E0001D861E861F86888A998AAA8ABB8A8A8149
:1022F0008F7D8A8381E046C023FF2CC0888D998D15
:10230000AA8DBB8D88159905AA05BB05B0F1EE8194
:10231000FF813481375F7501640181E0C81AD108FB
:10232000E108F108032E04C0F694E794D794C7940B
:102330000A94D2F78A8186FF36C08C8D9D8DAE8D32
:10234000BF8D8C0D9D1DAE1DBF1D8C879D87AE87DB
:10235000BF87C9CF26FFDBCFEE81FF8186819781C2
:1023600025E0880F991F2A95E1F7B0E0A0E08815D5
:102370009905AA05BB0508F0B6CF4C865D866E862A
:102380007F8680E0DF91CF911F910F91FF90EF90BA
:10239000DF90CF90BF90AF909F908F907F906F9085
:1023A0005F904F900895DB01CA010197A109B1091F
:1023B00004C0B695A795979587953A95D2F7C81614
:1023C000D906EA06FB0620F0452B462B472B49F59C
:1023D00027FF22C0848D958DA68DB78D8C879D8714
:1023E000AE87BF878E01045F1F4FC114D104E10483
:1023F000F10409F478CF4C855D856E857F85980161
:102400008E819F810E94211091E0C91AD108E108B4
:10241000F108181654F3B1CF8C8D9D8DAE8DBF8D04
:10242000DDCFC81AD90AEA0AFB0ADCCFCF93DF93C3
:10243000EC018881882341F0CE010E94EF101882C0
:102440001A82DF91CF91089581E0F9CF3F924F92A8
:102450005F926F927F928F929F92AF92BF92CF9234
:10246000DF92EF92FF920F931F93CF93DF9300D0F1
:102470001F92CDB7DEB75C01FC01448455846684AD
:10248000778486809780F401C084D184E284F384C9
:10249000C414D504E604F704C0F47301620110E02B
:1024A000FFEFCF1ADF0AEF0AFF0AF401808D918D4A
:1024B000A28DB38D8C159D05AE05BF0540F411119D
:1024C00032C0C084D184E284F38411E0E9CF4C149B
:1024D0005D046E047F0439F19E012F5F3F4FB70109
:1024E000A601C4010E94211087FD1DC08823C1F2EE
:1024F00089819A81AB81BC81892B8A2B8B2B81F6B8
:10250000112329F0F401C086D186E286F3860FEF0D
:102510001FEF2FEF3FE0B701A601C4010E94B40FE7
:10252000382E811118C0312C832D0F900F900F90F1
:102530000F90DF91CF911F910F91FF90EF90DF905F
:10254000CF90BF90AF909F908F907F906F905F9053
:102550004F903F9008954114510461047104B9F4FF
:10256000F501C486D586E686F7868281411451043A
:1025700061047104B1F0FFEF4F1A5F0A6F0A7F0A1E
:102580004C145D046E047F0479F08F7B0BC09701BF
:102590008601B301A201C4010E94B40F8111E0CFF2
:1025A000C2CF8064F5018283F501828180688283D5
:1025B000BBCF8F929F92AF92BF92CF92DF92EF925A
:1025C000FF920F931F93423051056105710560F42E
:1025D00080E01F910F91FF90EF90DF90CF90BF9020
:1025E000AF909F908F900895FC01E55EFD4FC080F5
:1025F000D180E280F380EFEFCE1ADE0AEE0AFE0A07
:10260000C416D506E606F70618F3480159016A0113
:10261000FC01E15FFD4F37E076956795579547954B
:102620003A95D1F70081118122813381400F511FEA
:10263000621F731F21E00E94670E009749F2CC0CC5
:10264000DD1CCC0CDD1CF1E0DF22C80ED91EF6012A
:1026500080829182A282B38281E0BBCFCF92DF924F
:10266000EF92FF920F931F93CF93DF93E901FC0149
:10267000E55EFD4F00811181228133810F5F1F4F85
:102680002F4F3F4F041715072607370750F48FEFDA
:10269000DF91CF911F910F91FF90EF90DF90CF903E
:1026A00008956A01FC01E15FFD4F37E0769567957B
:1026B000579547953A95D1F7008111812281338151
:1026C000400F511F621F731F20E00E94670E00978A
:1026D000F1F2CC0CDD1CCC0CDD1C21E0D222C80EAA
:1026E000D91EF60180819181A281B3818F3FFFEFD6
:1026F0009F07AF07BF0731F088839983AA83BB8305
:1027000081E0C6CF80E0C4CF0F931F93CF93DF93B8
:10271000EB01E42FDC01AD5DBD4F4D915D916D91FD
:102720007C9113970C811D812E813F814023512381
:102730006223732329E076956795579547952A95E7
:10274000D1F7088119812A813B81025011092109A1
:1027500031091B96FC9104C0000F111F221F331F6B
:10276000FA95D2F7400F511F621F731F57970D91B3
:102770001D912D913C91400F511F621F731F2E2FF1
:102780000E94670E009729F02C813D813170820FE5
:10279000931FDF91CF911F910F9108954F925F92F8
:1027A0006F927F928F929F92AF92BF92CF92DF9261
:1027B000EF920F931F93CF93DF936C014801590160
:1027C000DB01CA010297A109B109AC01BD01480DA5
:1027D000591D6A1D7B1DF601E55EFD4F00811181CB
:1027E00022813381041715072607370708F47FC0B5
:1027F00070974080518062807380EE2009F46CC035
:10280000481659066A067B0688F044165506660681
:10281000770660F4401751076207730718F040E02D
:1028200050E0BA0140835183628373839C01277017
:10283000332711E001C0110F2A95EAF72C013D0161
:102840002CE076946794579447942A95D1F7F60133
:10285000E95EFD4F4081518162817381440D551DB8
:10286000661D771D33E0B695A795979587953A95A0
:10287000D1F7EC01D1702A013B012FEF421A520A25
:10288000620A720A21E0C6010E94670E009779F180
:10289000FC01EC0FFD1FA12F2081422F4A2331E0C4
:1028A00009F430E03E1519F12A272083B1E08B1A94
:1028B0009108A108B10861F1AA0F71F73196B3012F
:1028C000A201D0E0C0E011E0A1E09F01281B390B7C
:1028D0002115324009F7CFCF84159505A605B70518
:1028E00008F0A4CF80839183A283B3839FCF80E03D
:1028F000DF91CF911F910F91EF90DF90CF90BF901C
:10290000AF909F908F907F906F905F904F900895C1
:1029100081E0EECF4F925F926F927F928F929F9263
:10292000AF92BF92EF92FF920F931F93CF93DF93DB
:10293000EC0188A199A1488D598D6A8D7B8D411537
:10294000510561057105F9F04F5F5F4F6F4F7F4F84
:102950000E94B10E4B015C0122E082169104A10499
:10296000B104A8F4F12C8F2DDF91CF911F910F911D
:10297000FF90EF90BF90AF909F908F907F906F905F
:102980005F904F90089540E050E0BA01E1CFEE240F
:10299000E39401E010E020E030E0BC01A40188A154
:1029A00099A10E94CE13F82E8823E1F2488D598D0B
:1029B0006A8D7B8D8EA5411551056105710539F430
:1029C00080648EA7888E998EAA8EBB8ECCCF86FF10
:1029D0002AC04F5F5F4F6F4F7F4F481559056A05FB
:1029E0007B0581F38F7B8EA74C8D5D8D6E8D7F8DEA
:1029F00088A199A1488C598C6A8C7B8C441555050B
:102A00006605770580F42A013B012FEF421A520A2E
:102A1000620A720A930182010E94D912B301A201D3
:102A20008111E6CF9FCF0FEF1FEF9801B501A401F1
:102A300088A199A10E94D912882309F493CF488DC7
:102A4000598D6A8D7B8D411551056105710509F41C
:102A5000B9CF9501840188A199A10E94D912811151
:102A6000B1CF80CFCF93DF93EC010E94970D8823E5
:102A700041F0C55DDD4F88819981DF91CF910C9444
:102A8000A80F80E0DF91CF9108952F923F924F924F
:102A90005F926F927F928F929F92AF92BF92CF92EE
:102AA000DF92EF92FF920F931F93CF93DF93CDB7F7
:102AB000DEB762970FB6F894DEBF0FBECDBF988B1E
:102AC0008F874801222E3D834E83352E2B01DC015A
:102AD00058962D913D914D915C915B972B873C874A
:102AE0004D875E879C96BC91BF83BB2309F4E3C0EE
:102AF000FC01F081F887DC011196BC91B987FC01DB
:102B0000F281FA87DC0113966C90139714967C90EF
:102B100014971596BC91FC01F681F98BFC01F781A5
:102B2000FA8B288539854A85562D672D7B2F898913
:102B30009F2F5801C22CDD80EE80F32C82010E9471
:102B40009751F1F09401422D5D2D6E2D732DC20130
:102B5000A0E00E94A051B1F4AF85B88958961D92AB
:102B60001D921D921C925B97EF85F889808291825D
:102B700022822D8123833E8134833582468257828F
:102B800081E0A4C0EF81E3FF10C0EF85F8892089C0
:102B90003189428953896489758986899789DD805D
:102BA000EE800E94975108F486C0EF85F889A0A0B6
:102BB000B1A0C501825D9D4FFC011081175F94019A
:102BC000422D5D816E81732DC201AFEF0E94825153
:102BD000012F0E945E51942F852FA901692F782F14
:102BE00069017B01EF85F88986A586FF0DC0848D7C
:102BF000958DA68DB78D840F951FA61FB71F808F4B
:102C0000918FA28FB38FB0CF288539854A85562DF5
:102C1000672D7B2F89899A89AFEF0E9482510E948C
:102C20005E5129833A834B835C8329813A814B81AE
:102C30005C81C216D306E406F50668F0288539855E
:102C40004A85562D672D7B2F89899A89A0E00E949D
:102C5000A05109F05BC0BF81B6FF51C0F501E15E34
:102C6000FD4F80819181A281B381EF85F889808FAA
:102C7000918FA28FB38F6F84788838E1630E711CB7
:102C8000C114D104E104F10409F46ECFAF85B88911
:102C900058964D915D916D917C915B9793019096C3
:102CA0008D919C910E942E13B1E0CB1AD108E108BE
:102CB000F10818162CF38B859C85AD85BE85EF85B4
:102CC000F889808F918FA28FB38F80E062960FB6C4
:102CD000F894DEBF0FBECDBFDF91CF911F910F9152
:102CE000FF90EF90DF90CF90BF90AF909F908F902C
:102CF0007F906F905F904F903F902F900895EF8559
:102D0000F889848D958DA68DB78DAFCF29813A81B5
:102D10004B815C81C21AD30AE40AF50AACCF9F92B8
:102D2000AF92BF92CF92DF92EF92FF920F931F93D9
:102D3000CF93DF9300D000D000D0CDB7DEB78C01A9
:102D4000942E89E0F801B296DE01119601900D9261
:102D50008A95E1F7F801A0A0B1A0F0E26F9FC00151
:102D60001124B0E0A0E04D815E816F817885F5018E
:102D7000ED5DFD4FC080D180E280F380C422D5227A
:102D8000E622F722C80ED91EEA1EFB1E840F951FED
:102D9000A61FB71F8D839E83AF83B8873B96808124
:102DA000875F04C0F694E794D794C7948A95D2F7C6
:102DB000C114D104E104F10489F149815A816B8184
:102DC0007C818985882371F04F5F5F4F6F4F7F4F04
:102DD00049835A836B837C8321E0C21AD108E108BE
:102DE000F108E6CF9E012F5F3F4FC5010E942E13D1
:102DF000813091F390E080E029960FB6F894DEBF21
:102E00000FBECDBFDF91CF911F910F91FF90EF903B
:102E1000DF90CF90BF90AF909F900895492DBE0155
:102E20006F5F7F4FF80180A191A10E948413E4CFCE
:102E3000FF920F931F93CF93DF93FC0124A52111E1
:102E400007C081E0DF91CF911F910F91FF9008950E
:102E5000EC0186A587FF8AC08F7786A7F12C10E04A
:102E600000E08BA58F1508F469C040E06F2DCE01FE
:102E70000E948F16FC01892B09F473C08081803C6D
:102E800061F1813C69F0853809F06BC08CA58773CE
:102E900090E095838483A8A1B9A18C9181608C93E3
:102EA000408190E080E000FB1795079517F9DF015E
:102EB000A80FB91F2C91020F111D8130910521F42B
:102EC00023E030E0453811F021E030E0820F931F1D
:102ED0008032910540F3F394C4CF81819EA596FF83
:102EE0002BC082608183788969895A894B893C89A2
:102EF0002D899E898F8970876187528743873487A0
:102F00002587968787878C8D9D8DAE8DBF8D848B11
:102F1000958BA68BB78B788569855A854B853C85C3
:102F20002D859E858F85708F618F528F438F348F53
:102F3000258F968F878FAFCF8D7FD4CF41E0BE0195
:102F40006E5D7F4F88A199A10E948413009749F07C
:102F5000FC011383028388A199A10E94321581117B
:102F600070CF8DA581608DA780E06CCF80A191A1ED
:102F70000E943215811165CF9DA591609DA762CFFA
:102F80000F931F93CF93DF93EC0188A999A9009722
:102F900059F00E94161219AA18AA1BAA1AAADF91A0
:102FA000CF911F910F9108950AA91BA981E00115E6
:102FB000110589F3C8010E941817F80114A616A676
:102FC000EACFCF93DF93EC018A819B8190937608BF
:102FD000809375088C819D81AE81BF818093770835
:102FE00090937808A0937908B0937A08888599859A
:102FF000AA85BB8580937B0890937C08A0937D086D
:10300000B0937E0888E0C337D807E9F08FE798E0EF
:103010000E94C0178CAD9DAD892BD1F010927F0816
:1030200010928008109281088FE798E09093B00882
:103030008093AF08ECADFDAD80E2AFE7B8E0019062
:103040000D928A95E1F783E798E0DF91CF9108959B
:103050008EAD9FAD892BB9F31092AB081092AC08DE
:103060001092AD088FE798E09093B2088093B10872
:10307000EEADFFAD8FE2E1CF2F923F924F925F9284
:103080006F927F928F929F92AF92BF92CF92DF9278
:10309000EF92FF920F931F93CF93DF93CDB7DEB7DD
:1030A00060970FB6F894DEBF0FBECDBFDC019E96D1
:1030B0002C9121FD02C080E082C0FC01848C958CA3
:1030C000A68CB78C81149104A104B10409F420C129
:1030D0006C01408C518C628C738C26FF95C02085CE
:1030E0003185428553856485758586859785AFEFE3
:1030F0000E94825100A0F1A1E02DDF01A25DBD4F31
:103100000C91075F0E945E5129873A874B875C8745
:103110006D877E878F87988B09851A852B853C85DF
:103120000F5F1F4F2F4F3F4F411451046104710433
:1031300009F45EC0D301C2010196A11DB11D8D83AA
:103140009E83AF83B887B1E08B1A9108A108B108BC
:1031500084189508A608B708080D191D2A1D3B1DDF
:10316000011511052105310559F04D815E816F81F1
:103170007885E12CCF010E94CE13882309F49BCFE0
:10318000F60170816181528143813481258196816C
:103190008781708761875287438734872587968721
:1031A0008787708B618B528B438B348B258B968BEF
:1031B000878B86A5806886A7C6010E94181760962F
:1031C0000FB6F894DEBF0FBECDBFDF91CF911F9138
:1031D0000F91FF90EF90DF90CF90BF90AF909F90B6
:1031E0008F907F906F905F904F903F902F900895B9
:1031F0008D829E82AF82B886D6015C961D921D920A
:103200001D921C925F97ACCF41145104610471046C
:1032100009F474C01D821E821F8218869E012B5FD6
:103220003F4FB301A201FC0180A191A10E942E1386
:1032300087FD41CF882391F0D60158964D915D913D
:103240006D917C915B970FEF1FEF980190968D9198
:103250009C910E94D912882309F42DCF8D809E80E5
:10326000AF80B88481149104A104B10409F488CF1B
:10327000D60190966D907C90140125019E012F5FE0
:103280003F4FB501A401C3010E942E13F82E87FD04
:1032900012CF00E010E09801B501A401C3010E9423
:1032A000D912882309F407CFBFEF8B1A9B0AAB0A08
:1032B000BB0AFF2049F089819A81AB81BC818815C6
:1032C0009905AA05BB0599F0950184010219130916
:1032D00024093509E12CB201A101C3010E94CE13DA
:1032E000882309F4E8CE29803A804B805C8089806D
:1032F0009A80AB80BC80F110C1CF42CF8D829E827C
:10330000AF82B886FC01148E158E168E178EA6CF4E
:1033100081E055CF982F803290F0877F823279F00C
:103320009A3369F0892F8F7B8C3349F082EC890FB7
:10333000823028F081E09C3519F080E0089581E02A
:103340000895AF92BF92CF92DF92EF92FF920F93C8
:103350001F93CF93DF93EC016A017B0159018F81A9
:103360009885A985BA858C159D05AE05BF0590F495
:103370009501B701A60189819A810E94EF0DDF9125
:10338000CF911F910F91FF90EF90DF90CF90BF9062
:10339000AF900895400F511F611D711D841795074F
:1033A000A607B70728F7CE010E94970D8111E0CF3D
:1033B000E6CFAF92BF92CF92DF92EF92FF920F9340
:1033C0001F93DC01DC96ED91FC91DD97309731F194
:1033D000808140E050E0BA0183FF0CC0408D518DE8
:1033E000628D738D80899189A289B389481B590B9D
:1033F0006A0B7B0B4115B0E85B076105710520F096
:103400004FEF5FE760E070E0CA011F910F91FF90FE
:10341000EF90DF90CF90BF90AF900895DE96ED9142
:10342000FC9180E090E0309781F384A583FF23C076
:103430002089318942895389648975898689978968
:10344000A080B180C280D380E480F580068117819E
:103450000E948E51F22FE32F2F3F3F474105510528
:10346000610571058105910519F010F0FFEFEFE797
:103470008F2F9E2FCACF20E030E040E050E060E088
:1034800070E080E090E0E6CFDC01DC96ED91FC910D
:10349000309731F08081882351F0CF010C94EF10E8
:1034A000FC0186AD97AD009711F00C9418170895A4
:1034B000FC011382128288EE93E0A0E0B0E08483E6
:1034C0009583A683B78315AE14AE17AE16AE88EA01
:1034D00092E091838083089508958FEF9FEF089580
:1034E00090E080E00895089590E080E0089580E005
:1034F0000895DC011296ED91FC9182850895DC011E
:103500001296ED91FC91660F770B0384F485E02D04
:10351000E60FF71F80819181089590E080E0089583
:10352000FC011682089580E00895649BFECF089503
:10353000049BFECF089580910B01806280930B0164
:103540000699FECF0499FCCF80910B018F7D80936B
:103550000B01089590910B0187FF58C092609093E2
:103560000B01659BFECF90910B0186FF51C09260CD
:1035700090930B016599FECF659BFECF90910B0157
:1035800085FF48C0926090930B016599FECF659BC3
:10359000FECF90910B0184FF3FC0926090930B018E
:1035A0006599FECF659BFECF90910B0183FF36C0DE
:1035B000926090930B016599FECF659BFECF909131
:1035C0000B0182FF2DC0926090930B016599FECF95
:1035D000659BFECF90910B0181FF24C09260909378
:1035E0000B016599FECF659BFECF80FF1DC08091CA
:1035F0000B01826080930B016599FECF659BFECF26
:1036000080910B018D7F80930B0108959D7FA7CF43
:103610009D7FAECF9D7FB7CF9D7FC0CF9D7FC9CF10
:103620009D7FD2CF9D7FDBCF80910B018D7FE2CF3D
:10363000659BFECF379B35C080E86599FECF659BC3
:10364000FECF379B30C080646599FECF659BFECF6F
:10365000379B2BC080626599FECF659BFECF379B61
:1036600026C080616599FECF659BFECF379B21C048
:1036700088606599FECF659BFECF379B1CC0846038
:103680006599FECF659BFECF379B17C08260659919
:10369000FECF659BFECF379B12C081606599FECF40
:1036A000089580E0CACF8F7BCFCF8F7DD4CF8F7E20
:1036B000D9CF877FDECF8B7FE3CF8D7FE8CF8E7F23
:1036C000EDCF0F931F93CF93DF9387E30E940B05FA
:1036D000C82F88E30E940B05082F86E30E940B0584
:1036E000182F89E30E940B05D82FC11151C062E346
:1036F00070E080E090E00E94C30587E30E940B0524
:10370000892B09F045C087E30E940B05892BD9F36B
:10371000C1E0011111C062E370E080E090E00E941E
:10372000C30588E30E940B05892B31F488E30E94CE
:103730000B05892BD9F3C2E0111111C062E370E0CF
:1037400080E090E00E94C30586E30E940B05892B70
:1037500031F486E30E940B05892BD9F3C3E0D11124
:1037600011C062E370E080E090E00E94C30589E34D
:103770000E940B05892B31F489E30E940B05892BEC
:10378000D9F3C4E08C2FDF91CF911F910F91089551
:10379000C0E0BFCFDC011D968D919C91DC01ED91C5
:1037A000FC910190F081E02D199460E086E10E9487
:1037B000340564E670E080E090E00E94C30561E0BB
:1037C00086E10C943405CF92DF92EF92FF920F9333
:1037D0001F93CF93DF93EC018B01888199810E9425
:1037E000DB071D870C87FF24F394F986CE010E9426
:1037F0001A0BDC011696FC920115110549F1C880DF
:10380000D980D0E0C0E0F60180819181C817D90746
:10381000FCF40280F381E02DCE01880F991FE80FA0
:10382000F91FE080F18070E060E0C701F8011995B0
:10383000892B71F4D70118968C9180FF02C02196D4
:10384000E2CF61E070E0C701F80119950197B9F77F
:10385000DF91CF911F910F91FF90EF90DF90CF906C
:103860000895CF93DF93EC01EE85FF8581E0868399
:103870009F810280F381E02D828180FF3FC09923E8
:1038800061F191509F832C813D81A90165E09602F1
:10389000400D511D1124CA01DA014C9164E070E021
:1038A0000E940F06CE010E941A0B21E0FC01268324
:1038B000CE010E941A0B9F878E87DC011296ED9134
:1038C000FC91828184FF03C0CE010E94311C61E023
:1038D00070E08FEFDF91CF9108958989882311F3EC
:1038E0008C819D81FC01408164E070E00E940F06A4
:1038F0006A857B85CE010E94E31BD4CF2C813D815C
:10390000A90165E09602400D511D1124CA01DA019A
:103910004C9164E070E00E940F068A819B81DC017B
:10392000ED91FC910684F785E02D60E01995BACF02
:10393000AF92BF92CF92DF92EF92FF920F931F93BD
:10394000CF93DF93EC010E94290BDC0114968D913B
:103950009C91892B09F4B1C0CE010E94290B7C01F6
:10396000DC01ED91FC91C084D184CE010E94290B31
:103970002F8115E04C815D812102400D511D1124E4
:103980009C0161E070E0C701F6011995892B09F0EF
:1039900094C0CE010E94290B7C01DC011296ED91AE
:1039A000FC91C280D3805601B2E0AB22BB242F81B0
:1039B0008C819D812102800D911D1124FC0140818B
:1039C00062E070E00E940F06009709F056C0C60141
:1039D00083709927039709F05FC09F818E819817A4
:1039E0000CF044C0CE010E941A0B01E0DC011696D7
:1039F0000C93CE010E94290B2F812F5F2F83EC8126
:103A0000FD812102E00DF11D11249283818310823A
:103A1000CE010E941A0BFC010683D701ED91FC91A7
:103A2000A084B184CE010E94290B2F814C815D813D
:103A30002102400D511D11249C0162E070E0C7017C
:103A4000F501199502E010E0FF86EE8681E0F701AE
:103A50008683C0FC25C08A819B81DC01ED91FC91AD
:103A60000684F785E02D61E019951AC06FE975E3CA
:103A7000CE010E94E31B00E0E6CF019769F4CE017E
:103A80000E94290BDC011296ED91FC91828180FD50
:103A900003C0CE010E94311C02E010E0AB28A1F669
:103AA000B8018FEFDF91CF911F910F91FF90EF90B1
:103AB000DF90CF90BF90AF90089560E070E0F1CFBD
:103AC000DF92EF92FF920F931F93CF93DF93EB015F
:103AD000790108812330310509F472C080F4213066
:103AE000310509F4ABC02230310509F4B2C0DF91D1
:103AF000CF911F910F91FF90EF90DF9008952430A8
:103B0000310509F479C0C9010797029780F7142F8E
:103B100047FDEDCF89819A810E94080618173CF76E
:103B200089819A81DC011296ED91FC911397228193
:103B300033812C703327232B09F496C021E016968D
:103B40002C9349815A81DA011296ED91FC9186817C
:103B500087FF07C00190F081E02DBE0180E890E072
:103B60001995402F60E270E0CE010E940F06188385
:103B7000B7E0EB1AF108E2E0EE16F10420F48B81D5
:103B80009C810E94981C412F60E170E0CE010E9450
:103B90000F0649815A81DA011296ED91FC918681D6
:103BA00086FFA5CF0190F081E02DBE0180E490E07A
:103BB000DF91CF911F910F91FF90EF90DF901994BB
:103BC00089819A810E940806882309F490CF11E028
:103BD000100F89819A810E940806181754F0898174
:103BE0009A81DC011296ED91FC91208520FF21C085
:103BF00010E0011395CF7BCF89819A81011107C015
:103C0000DC011296ED91FC91228124FD17C00E94E7
:103C10000806882309F46BCF1FEF100F17FFE9CFB9
:103C200089819A81DC011296ED91FC91208520FF1B
:103C3000DFCF0E9408061FEF180FDBCF8B819C811E
:103C4000DF91CF911F910F91FF90EF90DF900C9437
:103C5000311C8B819C81DF91CF911F910F91FF903F
:103C6000EF90DF900C94981C602F0E940106DD24D9
:103C7000D394FC01D682612F89819A810E9401062A
:103C8000DC011696DC925DCF9F92AF92BF92CF92ED
:103C9000DF92EF92FF920F931F93CF93DF939B01DD
:103CA000482F6B01C091BF08D091C008209709F43C
:103CB00043C0215031092230310508F0D2C0E090D4
:103CC000B308F090B40810E000E0D7018D919C910A
:103CD0001197081719079CF41296ED91FC91C801F1
:103CE000880F991FE80FF91F62E070E080819181D1
:103CF000FE011995019719F00F5F1F4FE6CF109243
:103D0000C0081092BF0883EB98E00E941A0B21E0D4
:103D1000DC0116962C938091B3089091B408DF9142
:103D2000CF911F910F91FF90EF90DF90CF90BF90B8
:103D3000AF909F900C94DB078091BA08C091B708B0
:103D4000D091B808B5E08B02C00DD11D1124CB0174
:103D50000997029708F06EC0E090B308F090B4089D
:103D600010E000E0F70180819181081719070CF03D
:103D700078C00280F381E02DC801880F991FE80FF9
:103D8000F91FA081B181EB81FC8187811696ED91AD
:103D9000FC911797082E000C990B9C01220F331FE2
:103DA000220F331F0190F081E02DE20FF31FA3805B
:103DB00014962D913C91820F931FDC01BC909924A5
:103DC0009A949B0C89819A81DC01ED91FC91019080
:103DD000F081E02D1995BAE0CB16D104C1F09920FD
:103DE00099F02881422F022E000C550BBA94BA94F8
:103DF000082E000C990B8B0D911DB7FC9A9584171A
:103E0000950714F4215028830F5F1F4FABCF2A2D45
:103E1000AA0C330B290D311D97FC3A95082E000C86
:103E2000990B2817390784F788818B156CF78F5FFA
:103E30008883EACF8091C1089091C208DC01ED919E
:103E4000FC910684F785E02DBE01DF91CF911F9193
:103E50000F91FF90EF90DF90CF90BF90AF909F9029
:103E60001994DF91CF911F910F91FF90EF90DF9008
:103E7000CF90BF90AF909F900895CF93DF93EC01C8
:103E800060E08E810E94340561E08E810E943405DD
:103E900060E08E810E9434058BE891E00197F1F794
:103EA000DF91CF910895CF92DF92EF92FF920F931F
:103EB0001F93CF93DF936C017C0187E0E80EF11C28
:103EC000D0E0C0E0062F10E0B8010C2E02C07595BE
:103ED00067950A94E2F76170F70181917F010E9472
:103EE00034052196C430D10579F7C601DF91CF9111
:103EF0001F910F91FF90EF90DF90CF900C943D1F9A
:103F0000CF92DF92EF92FF920F931F93CF93DF93A5
:103F1000EC01F62E642F8C810E9434058D818F3F39
:103F200019F060E00E9434050F2D10E08F8584FFAA
:103F300025C06E0187E0C80ED11CF12CE12CB80120
:103F40000E2C02C0759567950A94E2F76170F60130
:103F500081916F010E943405FFEFEF1AFF0A88E09C
:103F6000E816F10461F7CE01DF91CF911F910F9117
:103F7000FF90EF90DF90CF900C943D1FB80184E04C
:103F8000759567958A95E1F7CE010E94531F6F2DB5
:103F9000CE01DF91CF911F910F91FF90EF90DF90B5
:103FA000CF900C94531F41E00E94801F81E090E06D
:103FB000089540E00C94801FEF92FF920F931F939F
:103FC000CF93DF938C017A0188E0689FB0011124C0
:103FD0006064C8010E94D91FE701A8E0EA0EF11C45
:103FE0006991D801ED91FC910190F081E02DC8011B
:103FF0001995CE15DF05A1F7DF91CF911F910F9194
:10400000FF90EF900895443008F043E0FC012389CD
:10401000421710F04FEF420FFC01E40FF11D24890D
:10402000620F60680C94D91FDC011696ED91FC912B
:10403000B4E02B02900111240190F081E02DE20FF9
:10404000F31F20813181430F620FFC018585968526
:104050000C94032061E00E94D91F8BE39FE101973C
:10406000F1F70895CF93DF93823029F490912809D6
:1040700098609093280980932C0910922D0980E470
:1040800080932E0980E180932F0980E58093300989
:1040900061E080911D090E94620580911E098F3F99
:1040A00019F061E00E94620561E080911F090E94A1
:1040B0006205C9E1D9E09E01295139408091280962
:1040C00084FD0BC084E090E021962817390744F462
:1040D00061E08E810E946205EECF88E090E0F4CF2F
:1040E0008BE39DE00197F1F760E080911D090E944C
:1040F000340560E080911F090E94340580911E09FB
:104100008F3F19F060E00E9434056091280964FD3A
:104110003CC063E089E199E00E94531FCBE4D6E400
:10412000CE010197F1F763E089E199E00E94531F06
:104130002197F1F763E089E199E00E94531F83E53D
:1041400092E00197F1F762E089E199E00E94531F44
:1041500060912809606289E199E00E94D91F84E09A
:10416000809329096CE089E199E00E94D91F89E1D7
:1041700099E00E942A2082E080932A0966E089E182
:1041800099E0DF91CF910C94D91F606289E199E0A9
:104190000E94D91F8BE496E40197F1F760912809FA
:1041A000606289E199E00E94D91F83E592E001975E
:1041B000F1F760912809606289E199E00E94D91FB6
:1041C000C7CFCF93DF93EC018D859E850E942A2077
:1041D000AE81BF8190E080E014962C911497022E5E
:1041E000000C330B821793076CF49C01220F331FD2
:1041F0001296ED91FC911397E20FF31F118210823A
:104200000196EACFDF91CF910895EF92FF920F933D
:104210001F93CF93DF93EC01142FF22E8D859E8593
:10422000FC0160896E7F608B68600E94D91F8D855C
:104230009E85FC0160896D7F608B68600E94D91F3C
:10424000002391F04F2D612F8D859E850E940320C4
:104250008D859E85FC016089262FEE2069F0226005
:10426000208B6A600E94D91F80E0DF91CF911F915F
:104270000F91FF90EF9008952160208B6960F2CF3D
:104280008F929F92AF92BF92CF92DF92EF92FF9266
:104290000F931F93CF93DF93EC017B013A8130FFA3
:1042A000CAC0288188889988AA88BB88422F48700C
:1042B000C42E23FF22C0888D998DAA8DBB8D8819AD
:1042C0009909AA09BB0982309105A105B10520F51C
:1042D000009711F530E020E0A901481B590BCA01F5
:1042E000DF91CF911F910F91FF90EF90DF90CF90D2
:1042F000BF90AF909F908F90089526FF0DC0EE81E4
:10430000FF818681978145E0880F991F4A95E1F7E3
:104310008815990509F495C0EE81FF81840111701B
:10432000B501A40189E076956795579547958A95DB
:10433000D1F726FF27C0848D958DA68DB78D480FA8
:10434000591F6A1F7B1F8E819F8120E080960E94EB
:10435000670E009709F46FC0800F911FFC018081E8
:10436000F701808388899989AA89BB890196A11D53
:10437000B11D888B998BAA8BBB8B21E030E090E03C
:1043800080E0AACFD380D4220115110581F4D11089
:104390000EC089288A288B2881F527FF29C0848DA3
:1043A000958DA68DB78D8C879D87AE87BF87EE8153
:1043B000FF814C855D856E857F854250510961097D
:1043C0007109848104C0440F551F661F771F8A95A9
:1043D000D2F780899189A289B389840F951FA61F7E
:1043E000B71FAC01BD014D0D511D611D711DABCF3E
:1043F0008C8D9D8DAE8DBF8DD6CF4C855D856E85A8
:104400007F85CC2059F036FF09C04F5F5F4F6F4F5B
:104410007F4F4C875D876E877F87C9CF9E01245F62
:104420003F4FCF010E94211087FD05C08111BFCFF2
:104430008881807D49F48981826089838FEF9FEF35
:104440004FCF30E020E09BCF21E030E081E090E0F2
:1044500043CFEF92FF920F931F93CF93DF931F925F
:10446000CDB7DEB77C01962FF7014089518962896B
:1044700073898A019B0185E03695279517950795E5
:104480008A95D1F70F7011F0911129C0BE016F5FAD
:104490007F4FC7010E944021813051F090E080E0C1
:1044A0000F90DF91CF911F910F91FF90EF900895A2
:1044B000F70180899189A289B3894F96A11DB11D09
:1044C000808B918BA28BB38BF701868197818B9622
:1044D000F0E20F9F90011124820F931FE1CF405E05
:1044E0005F4F6F4F7F4F408B518B628B738BECCF45
:1044F000CF93DF93EC01AB0170E060E085E0440F07
:10450000551F661F771F8A95D1F7CE010E9446116D
:10451000882331F060E0CE01DF91CF910C94292205
:1045200090E080E0DF91CF9108952F923F924F92DB
:104530005F926F927F928F929F92AF92BF92CF9233
:10454000DF92EF92FF920F931F93CF93DF93CDB73C
:10455000DEB72E970FB6F894DEBF0FBECDBF9E8795
:104560008D877A8769875C874B87DC019E968C9163
:104570009E9780FF45C186FD04C09C968C9183FF69
:104580004FC0ED85FE85F081F983AD85BE8511961E
:10459000BC91BA83ED85FE85F281FB83AD85BE8536
:1045A0001396BC91BC83ED85FE85F481FD83AD85BA
:1045B000BE851596BC91BE83ED85FE85F681FF8391
:1045C000AD85BE851796BC91B887ED85FE852088A0
:1045D00031884288538864887588868897882B85B7
:1045E0003C8540E050E060E070E080E090E0A98031
:1045F000BA80CB80DC80ED80FE800F8118850E9420
:10460000795151016201730184010E94975141F077
:1046100038F0C101A981BA818A1B9B0B9C878B87CB
:104620008B849C842D843E84B8E12B0E311C811434
:10463000910409F46FC1ED85FE85F081F983AD85A4
:10464000BE851196BC91BA83ED85FE85F281FB8310
:10465000AD85BE851396BC91BC83ED85FE85F48146
:10466000FD83AD85BE851596BC91BE83ED85FE8527
:10467000F681FF83AD85BE851796BC91B887AD8561
:10468000BE859096ED91FC91DF01AD5DBD4FCD9063
:10469000DD90ED90FC9089819A81AB81BC81C8222C
:1046A000D922EA22FB22260191E05922C114D10429
:1046B000E104F104F9F429813A814B815C816D8137
:1046C0007E818F819885A0E00E94A05109F072C080
:1046D000AD85BE859C968C9186FF65C0E15EFD4FE1
:1046E00080819181A281B381ED85FE85808F918F3C
:1046F000A28FB38FED85FE8580A191A1FC01E25DC3
:10470000FD4FA08149E0F694E794D794C7944A9569
:10471000D1F7ED85FE85408D518D628D738D4250B0
:104720005109610971090A2E04C0440F551F661F03
:10473000771F0A94D2F74C0D5D1D6E1D7F1DFC0185
:10474000E95EFD4F0081118122813381400F511FAD
:10475000621F731F4114510409F05AC08114F2E022
:104760009F0608F455C0FC0107811085218532851C
:10477000401751076207730709F44AC08114F4E037
:104780009F0608F09AC001E010E029853A85DC0117
:1047900011968D919C910E94EF0D882389F1612CD7
:1047A00082E0782E4BC0ED85FE85848D958DA68D9B
:1047B000B78D9ACFAD85BE8558964D915D916D911F
:1047C0007C915B979E968C919E9786FF0AC04F5F67
:1047D0005F4F6F4F7F4FFD01408F518F628F738FFF
:1047E00089CF9101CF010E942E1387FD09C081114D
:1047F00081CFAD85BE859C968C91807509F08AC06D
:10480000ED85FE8585A5826085A78FEF9FEF86C029
:1048100020E032E02419350934012815390508F45F
:10482000390120E00E94670E009751F3BC01640D2E
:10483000751DA30189859A850E94E051E985FA8555
:10484000E60DF71DFA87E987930140E050E060E04C
:1048500070E080E090E0AD85BE85AC901196BC9094
:1048600011971296CC9012971396DC90139714968A
:10487000EC9014971596FC90159716960C91169738
:1048800017961C9117970E9479512C9311963C937F
:10489000119712964C93129713965C931397149654
:1048A0006C93149715967C93159716968C93169780
:1048B00017969C9386189708BACE2401452C552448
:1048C0004694712C612C01E010E020E030E004C03F
:1048D000000F111F221F331FAA95D2F70C191D09B3
:1048E0002E093F09401651066206730610F4930123
:1048F00082016801790129E0CC0CDD1CEE1CFF1C53
:104900002A95D1F7360129853A850E94A11981118E
:1049100095CF76CF8B859C85881999092E960FB6F1
:10492000F894DEBF0FBECDBFDF91CF911F910F91E5
:10493000FF90EF90DF90CF90BF90AF909F908F90BF
:104940007F906F905F904F903F902F9008954F927F
:104950005F926F927F928F929F92AF92BF92CF920F
:10496000DF92EF92FF920F931F93CF93DF931F92EB
:10497000CDB7DEB7FC0104AD15AD0115110589F108
:10498000F80180889188A288B388C484D584E6849D
:10499000F784BE016F5F7F4FC8010E9440210197DD
:1049A000E9F4898190E0F801808A918AA28AB38A29
:1049B000C486D586E686F7860F90DF91CF911F914A
:1049C0000F91FF90EF90DF90CF90BF90AF909F90AE
:1049D0008F907F906F905F904F9008958FEF9FEF33
:1049E000E2CF06AD17AD8FEF9FEF0115110521F353
:1049F000F801408051806280738084809580A68019
:104A0000B780C08CD18CE28CF38C41E050E0BE01C9
:104A10006F5F7F4FC8010E949522019781F48981C1
:104A200090E0F80140825182628273828482958292
:104A3000A682B782C08ED18EE28EF38EBDCF8FEF6D
:104A40009FEFEFCFCF93DF931F92CDB7DEB7FC017F
:104A500084AD95AD009751F0BE016F5F7F4F0E940E
:104A60004021019739F4898190E006C086AD97AD69
:104A7000009731F48FEF9FEF0F90DF91CF91089562
:104A800041E050E0BE016F5F7F4F0E949522E9CF69
:104A90002F923F924F925F926F927F928F929F924E
:104AA000AF92BF92CF92DF92EF92FF920F931F933C
:104AB000CF93DF93CDB7DEB762970FB6F894DEBF22
:104AC0000FBECDBF7A8769875E874D87DC01D096A0
:104AD0000D90BC91A02DB88BAF87109709F483C1BE
:104AE00012968C9181FFBCC083FDADC0ED85FE8523
:104AF000AF0170E060E0EF85F88980899189A28933
:104B0000B38980959095A095B09584179507A607D1
:104B1000B70708F4A5C0CD84DE8444244A94542CFD
:104B200032013C96FC87EB87EF85F8898088918875
:104B3000A288B388C114D10409F428C12680378023
:104B4000D1011396FC90B501A40199E07695679583
:104B5000579547959A95D1F7F42284011170F11079
:104B600023C044855585668577850115110509F0B3
:104B7000D9C3411551056105710509F4A9C0228108
:104B800026FF76C0808D918DA28DB38D88169906F3
:104B9000AA06BB0608F06CC04F5F5F4F6F4F7F4F98
:104BA0004487558766877787AF85B8891696ED91D4
:104BB000FC9117971C964D915D916D917C911F977B
:104BC0004250510961097109848104C0440F551F85
:104BD000661F771F8A95D2F780899189A289B38948
:104BE000840F951FA61FB71FAC01BD014F0D511DAE
:104BF000611D711D0115110509F0A9C3C114B2E0B1
:104C0000DB0608F4A4C387A090A4A1A4B2A421A0A9
:104C100032A0C11424E0D20608F07EC04815590520
:104C20006A057B0529F410A247A250A661A672A6C8
:104C300029853A85C1010E94440D882389F0E12C21
:104C400052E0F52EC8C3AF85B88958964D915D9155
:104C50006D917C915B97CD010E944611811146CFE9
:104C6000EF85F8898181816081831E861D86A0C0C1
:104C70002B853C85C1010E94211087FDF1CF811158
:104C800006C08F8598890E942612882349F3AF8534
:104C9000B8891696ED91FC9117971C964D915D91F0
:104CA0006D917C911F97425051096109710984816E
:104CB00004C0440F551F661F771F8A95D2F780895D
:104CC0009189A289B389480F591F6A1F7B1F96CF0C
:104CD000EF85F889848D958DA68DB78D0097A105F8
:104CE000B10589F4CF010E942612882309F4B8CFB8
:104CF000EF85F88984859585A685B785848F958FFE
:104D0000A68FB78F51CFEF85F88984879587A687BF
:104D1000B7874ACF21E042C38601012F11270695AC
:104D200030E020E082818F19990B092E000CAA0B2C
:104D3000BB0B081719072A073B0710F4D901C80154
:104D40008C019D010F2EF9E0000F111F221F331F50
:104D5000FA95D1F7F02D78018C0184169506A606F8
:104D6000B70670F0840F951FA61FB71F8816990607
:104D7000AA06BB0628F410A247A250A661A672A6F6
:104D800029853A85C1010E94C50C22C3EF85F889A7
:104D9000808D918DA28DB38D88159905AA05BB05CF
:104DA00038F4808E918EA28EB38E82818068828349
:104DB0008D859E8562960FB6F894DEBF0FBECDBF7F
:104DC000DF91CF911F910F91FF90EF90DF90CF90E7
:104DD000BF90AF909F908F907F906F905F904F901B
:104DE0003F902F900895DC01D2960D90BC91A02D9C
:104DF000BA8BA98B109709F438CF9E968C9181FFBE
:104E00000CC183FDEBC0ED85FE85FC87EB8729890E
:104E10003A89285E3F4F388B2F87E989FA892080AD
:104E200031804280538064807580868097802B8596
:104E30003C85232B09F435C200A0F1A1E02DDF0150
:104E4000AD5DBD4FCD90DD90ED90FC90C220D320A4
:104E5000E420F520160131E03322C114D104E1042D
:104E6000F10409F056C0A989BA8958968D909D9091
:104E7000AD90BC905B9781149104A104B10409F436
:104E8000F0C09E968C919E9786FFDBC05C964D90FD
:104E90005D906D907C905F9718962C91189719965D
:104EA0003C9119971A964C911A971B965C911B97F7
:104EB0001C966C911C971D967C911D971E968C914B
:104EC0001E971F969C91AFEF0E948251E25DFD4FAD
:104ED0000081075F0E945E5129833A834B835C8384
:104EE0006D837E838F83988729813A814B815C8192
:104EF000420E531E641E751E84149504A604B70446
:104F000008F491C089899A890E948A14882309F437
:104F100084C0A989BA899096ED91FC91DF01A25DC8
:104F2000BD4F2C9129834601570149E0B694A794BF
:104F3000979487944A95D1F7A989BA8958964D9044
:104F40005D906D907C905B97B2E04B1A51086108C0
:104F5000710804C0440C551C661C771C2A95D2F7B6
:104F6000480C591C6A1C7B1CDF01A95EBD4F8D914A
:104F70009D910D90BC91A02D480E591E6A1E7B1E5E
:104F80002114310409F08EC02B853C85211542E0A7
:104F9000340708F487C0C780D084E184F28481811B
:104FA00092812115344008F033C14C145D046E0425
:104FB0007F0441F410824FEF5FEFBA0147835087BF
:104FC0006187728729853A85B301A2010E94440D49
:104FD000882319F1812C82E0982EC4C0A989BA894E
:104FE00050960C91509751961C91519752962C9136
:104FF000529753963C91539754964C91549755968B
:105000005C91559756966C91569757967C91579709
:10501000CD010E9445158111F6CEE989FA8985A551
:10502000816085A722CE3FEF831A930AA30AB30AB1
:10503000A989BA8958968D929D92AD92BC925B9740
:1050400068CF2F853889B501A401CF010E942E13A6
:10505000082E000C990B97FDE0CF892B09F452CF55
:1050600058CFE989FA89848D958DA68DB78D0097E3
:10507000A105B10581F4CF010E948A14882369F249
:10508000E989FA89808D918DA28DB38D848F958F5A
:10509000A68FB78F3ECFE989FA89808F918FA28F33
:1050A000B38F37CF80E092E0821993098B849C8480
:1050B0008815990508F44C012114310409F0A6C0A3
:1050C000A989BA892C9111963C91119712964C910D
:1050D000129713965C91139714966C9114971596EA
:1050E0007C9115975096AC9050975196BC905197E3
:1050F0005296CC9052975396DC9053975496EC90DE
:1051000054975596FC90559756960C9156975796EE
:105110001C91579716968C91169717969C910E9402
:10512000975108F473C025E0B301A201CF010E949A
:10513000670E009709F471CFA40169857A85820D05
:10514000931D0E94E051280C391C2114B2E03B064B
:1051500049F4E989FA8980A191A10E94970D8823D9
:1051600009F45BCF940140E050E060E070E080E043
:1051700090E0A989BA89AC901196BC9011971296CB
:10518000CC9012971396DC9013971496EC9014978A
:105190001596FC90159716960C91169717961C91DC
:1051A0000E94795129013A01382EE989FA89208330
:1051B00051824283738264837583868397832985B2
:1051C0003A85280D391D3A8729874B855C85481912
:1051D00059095C874B87A088B188C288D388E48846
:1051E000F588068917899201A3010E94975109F059
:1051F00008F413CE86A5806886A7408A518A628A01
:10520000738A648B758B368A978B07CE21E08CCF9F
:105210000B851C85012F1127069530E020E041E029
:1052200050E060E070E0098004C0440F551F661F25
:10523000771F0A94D2F749835A836B837C8348197A
:1052400059096A097B09041715072607370710F45F
:10525000B901A8014A015B0129E0880C991CAA1C2C
:10526000BB1C2A95D1F78A01C414D504E604F704BF
:1052700088F0440D551D661D771DC416D506E6063B
:10528000F70640F410822FEF3FEFA9012783308704
:105290004187528729853A85B301A2010E94C50C36
:1052A0005ECFA989BA8918962C91189719963C91C6
:1052B00019971A964C911A971B965C911B971C96FE
:1052C0006C911C971D967C911D971E968C911E9734
:1052D0001F969C911F9751016201730184010E94E6
:1052E000975108F065CD18962C92189719963C9214
:1052F00019971A964C921A971B965C921B971C96BC
:105300006C921C971D967C921D971E968C921E97F0
:105310001F969C921F979E968C919E9780689E9652
:105320008C9346CDF1014250510961097109848184
:1053300004C0440F551F661F771F8A95D2F78089D6
:105340009189A289B389480F591F6A1F7B1F80E08A
:1053500092E0801B910B76018C159D0508F47C0171
:105360000115110509F0D6CCAF85B88950968D90FE
:105370009D90AD90BC90539758968D919D910D90B6
:10538000BC91A02D88169906AA06BB0630F4AF85FD
:10539000B88912968C9185FFBDCC25E0CF0180960F
:1053A0000E94670E009709F45BCCA70169857A8596
:1053B000800F911F0E94E0510E0D1F1D011512401C
:1053C00051F4EF85F8898681978180960E94970D28
:1053D000882309F445CCEF85F88980899189A289D1
:1053E000B3898E0D9F1DA11DB11D808B918BA28B4A
:1053F000B38B29853A852E0D3F1D3A872987CE1814
:10540000DF0892CB0C960C944825CF93DF931F9224
:10541000CDB7DEB7698341E050E0BE016F5F7F4FDB
:105420000C960E9448250F90DF91CF9108951F930D
:10543000CF93DF9300D000D01F921F92CDB7DEB77D
:10544000182F8091170990911809AB01892B49F009
:1054500048E050E0CE0101960E947A4CAE014F5FC9
:105460005F4F612F80911309909114090E94DC1FF6
:1054700028960FB6F894DEBF0FBECDBFDF91CF9157
:105480001F9108951F93CF93DF93CDB7DEB7609739
:105490000FB6F894DEBF0FBECDBF182F809117094D
:1054A00090911809892B09F5FB01DE0111969B01EA
:1054B000285F3F4F91918781892B8D93E217F307E6
:1054C000C9F7AE014F5F5F4F612F80911309909133
:1054D00014090E94DC1F60960FB6F894DEBF0FBE61
:1054E000CDBFDF91CF911F91089540E150E0CE01F3
:1054F00001960E947A4CFE0131969E01275F3F4F34
:1055000080819085892B8193E217F307C9F7D9CF62
:10551000FC01808181110EC080E2DF011D928A951D
:10552000E9F777836683DB0115968C91803121F052
:10553000803239F080E0089580E4808381E08283C6
:10554000089580E8FACF2F923F924F925F926F9228
:105550007F928F929F92AF92BF92CF92DF92EF9203
:10556000FF920F931F93CF93DF93CDB7DEB7E697EC
:105570000FB6F894DEBF0FBECDBF3C014B011A0140
:10558000E22EDC019C968C9181110DC0FB0184A55B
:10559000807549F0822F8370813009F462C040F039
:1055A000823009F45BC0F30114A616A6F12C31C1B8
:1055B000F1E0FDA3D10116968D919C910E966FE0BE
:1055C00070E00E940A516EA752E0452E460E00E0A0
:1055D00010E020E030E040E050E060E070E0C40126
:1055E0000E944515F12C512C6E01B1E2CB0ED11C5D
:1055F000BDA06894B6F86FE2A62E40E250E0BE016E
:105600006F5F7F4FC4010E949522009709F458C133
:10561000809749F6898187FD27C0511017C0F40192
:1056200040815181628173818A019B01005211097D
:10563000210931090AA71BA72CA73DA7208D318D71
:10564000428D538D2EA33FA348A759A7541408F4A5
:105650005394882309F434C1F12CCFCF03E00DA378
:10566000A9CF12E01DA3A6CFF11043C0541408F433
:10567000512C853811F6F3010A2D11920A95E9F79C
:105680008A81D3019B968C939B979D81892F8773E9
:1056900094FF2BC09C968C93D40190968D919C91F5
:1056A0009197F30191A380A358968D919D910D90B0
:1056B000BC91A02D82A393A3A4A3B5A3F4018081E0
:1056C0009181A281B3818097A109B109F30186A3D9
:1056D00097A3A0A7B1A7D4019E968C9186FB88279B
:1056E00080F982A7FF24F39488CF8860F30184A710
:1056F000D3CF803C09F05CC00DA1F30106A78A81DD
:1057000081FDB6A68985D30150968C9350978A85E2
:1057100051968C9351978B8552968C9352978C858A
:1057200053968C9353978D8554968C9354978E856E
:1057300055968C9355978F8556968C935697888956
:1057400057968C938D899E89AF89B88DF301848F8C
:10575000958FA68FB78F898D80878A8D81878B8D56
:1057600082878C8D83878D8D84878E8D85878F8DA5
:10577000868788A18787D1018D919C911197139677
:105780009C938E9312972C8116968D919C911797CE
:105790002817190609F060CFFF24F39418962D916D
:1057A0003C918D819E812817390709F055CF25CF6F
:1057B000813C09F051CFF10124813581BE016D5F3B
:1057C0007F4FDB018D919D91BD01F101A281B381DC
:1057D000A217B307C1F5892B09F03ECFD10112966C
:1057E0008D919C918217930709F007CF8E2D8472BB
:1057F00021F4F30186A581FF06C0D3019C968C910C
:10580000817109F0D0CEE2FC39C0F30186A581FD9B
:1058100053C08F2DE6960FB6F894DEBF0FBECDBFF6
:10582000DF91CF911F910F91FF90EF90DF90CF907C
:10583000BF90AF909F908F907F906F905F904F90B0
:105840003F902F900895AD014F5F5F4F5383428388
:105850004C918F37910508F0FFCE5FE9540F5A3114
:1058600008F440525FE9580F5A3108F4805284130B
:10587000F3CE6C157D0509F0A4CFB0CFD3015096BF
:105880000C91509751961C91519752962C9152978A
:1058900053963C91539754964C91549755965C91DE
:1058A000559756966C91569757967C91C3010E94D6
:1058B00045158111AACF77CE84A5806284A7A9CF90
:1058C000E4FE71CE8DA1827009F46DCE541408F0FF
:1058D00068C140E250E0BE016F5F7F4FC4010E948B
:1058E0009522009709F03FC1D40158960D911D9162
:1058F0002D913C915B970FA718AB29AB3AAB9C96C7
:105900008C919C9786FFB0C090960D911C91F801E8
:10591000E15EFD4F80819181A281B38189A39AA329
:10592000ABA3BCA3C12CD12C760149A15AA16BA178
:105930007CA19E012F5D3F4FC8010E942E1387FD61
:105940008FC0BFEFCB1ADB0AEB0AFB0A8111EDCF48
:10595000F801E25DFD4F8081875F04C0CC0CDD1C47
:10596000EE1CFF1C8A95D2F7D4019096ED91FC9124
:10597000E95DFD4F80819181A281B3818C0D9D1DD8
:10598000AE1DBF1D0097A105B44008F00CCEC401A8
:105990000E948A14882309F406CED40190968D9132
:1059A0009C9191975896CD90DD90ED90FC905B97EF
:1059B000B2E0CB1AD108E108F108FC01E25DFD4F2D
:1059C000208104C0CC0CDD1CEE1CFF1C2A95D2F7F4
:1059D000895E9D4FFC0180819181A281B3819701F5
:1059E0008601080F191F2A1F3B1F0BAB1CAB2DABE9
:1059F0003EABC12CD12C7601D40190968D919C9117
:105A00009197FC01E25DFD4F208141E050E060E0B4
:105A100070E004C0440F551F661F771F2A95D2F708
:105A2000C416D506E606F70628F525E04BA95CA9BD
:105A30006DA97EA94C0D5D1D6E1D7F1D0E94670E18
:105A4000009709F4B0CDFC0100E012E01192015082
:105A50001040E1F71FEFC11AD10AE10AF10ACCCFD9
:105A6000C12CD12C760174CFF401C084D184E2849E
:105A7000F3847ACF9C962C919C9726FD62C09E96CB
:105A80002C919E9720689E962C93FC01E95DFD4F1A
:105A900080819181A281B3819C01AD0160E070E0C1
:105AA00080E090E0D4011896AC9018971996BC90BD
:105AB00019971A96CC901A971B96DC901B971C96F8
:105AC000EC901C971D96FC901D971E960C911E97AE
:105AD0001F961C911F970E94795118962C93189726
